:100000000C9404010C9431010C9431010C943101D5
:100010000C9431010C9431010C9431010C94310198
:100020000C9431010C9431010C9431010C94310188
:100030000C9431010C9431010C9431010C94310178
:100040000C9431010C941F0A0C9431010C94310171
:100050000C9431010C9431010C9431010C94A50ADB
:100060000C9431010C94C1010C94ED020C943101FB
:100070000C9431010C9431010C9431010C94310138
:100080000C94F1090C9431010C9431010C94310160
:100090000C94FA010C942C030C9431010C94310152
:1000A0000C9431010C9431010C94C3090C9431016E
:1000B0000C9431010C9431010C9431010C9495098C
:1000C0000C9431010C9431010C9431010C943302E5
:1000D0000C946B030C9431010C946C020C94AA03E5
:1000E0000C94310100002100240027002A002D007B
:1000F0003000330001010000040107010A01000083
:100100002200250028002B002E00310034000201BF
:100110000000050108010B0100002000230026005B
:1001200029002C002F00320000010000030106010D
:10013000090105050505070508080808020202026D
:100140000A0A080804040404010101010101010173
:100150000303030303030303040707070C0C0C0C3E
:100160000C0C0C0C02020202060606060606060627
:100170000B0B0B0B0B0B0B0B0102102020080810B4
:100180002040102040800201020108040201010207
:1001900004081020408080402010080402018004E0
:1001A000020180402010080402010804020101023B
:1001B0000408102040800102040810204080000044
:1001C000090A02080B0C0D070603040100000000D9
:1001D000000000000000000000000000000000001F
:1001E0000000000000000000000011100F000000DF
:1001F00000000000000000000000000000000000FF
:10020000000000003301140511241FBECFEFD1E21E
:10021000DEBFCDBF00E00CBF12E0A0E0B2E0E8E935
:10022000F9E100E00BBF02C007900D92A031B107C9
:10023000D9F71BBE15E0A0E1B2E001C01D92A835C0
:10024000B107E1F712E0C8E0D2E004C02297FE0156
:100250000E94C60CC430D107C9F70E94960A0C94BC
:10026000CA0C0C9400000F931F9302E112E0C80126
:100270000E945307C80103960E945307C8010696BF
:100280000E945307C80109960E9453071F910F91BE
:1002900008958EE394E00E946F04892B09F449C00D
:1002A0008EE394E00E94A004282F80330CF441C018
:1002B0008A332CF0883721F18937D9F52EC0809107
:1002C000100290911102BC0143E0660F771F4A951E
:1002D000E1F7880F991F680F791F60537040822FD4
:1002E000992787FD9095680F791F7093110260938D
:1002F00010028EE394E04AE050E00E943407089533
:1003000060911002709111028BE192E00E94B4079B
:1003100010921102109210020895609110027091D3
:1003200011028BE192E00E94B40710921102109228
:10033000100208950F931F938EE394E040E855E276
:1003400060E070E00E94E90302E112E0C80166E0AB
:1003500070E00E94CC08C801039667E070E00E943C
:10036000CC08C801069668E070E00E94CC08C8017D
:10037000099669E070E00E94CC081F910F910895E2
:1003800008951F920F920FB60F920BB60F92112481
:100390002F933F934F938F939F93EF93FF934091AE
:1003A000C60020915E0230915F022F5F3F4F2F7396
:1003B000307080916002909161022817390759F0DE
:1003C000E0915E02F0915F02E25EFD4F4083309368
:1003D0005F0220935E02FF91EF919F918F914F9169
:1003E0003F912F910F900BBE0F900FBE0F901F905B
:1003F000189508951F920F920FB60F920BB60F9299
:1004000011242F933F934F938F939F93EF93FF93D9
:100410004091CE002091E6023091E7022F5F3F4FDE
:100420002F7330708091E8029091E9022817390704
:1004300059F0E091E602F091E702EA55FD4F408362
:100440003093E7022093E602FF91EF919F918F9105
:100450004F913F912F910F900BBE0F900FBE0F90B9
:100460001F90189508951F920F920FB60F920BB61A
:100470000F9211242F933F934F938F939F93EF935A
:10048000FF934091D60020916E0330916F032F5F50
:100490003F4F2F7330708091700390917103281734
:1004A000390759F0E0916E03F0916F03E25DFC4F64
:1004B000408330936F0320936E03FF91EF919F91E0
:1004C0008F914F913F912F910F900BBE0F900FBEC8
:1004D0000F901F90189508951F920F920FB60F92CC
:1004E0000BB60F9211242F933F934F938F939F93AB
:1004F000EF93FF93409136012091F6033091F7037B
:100500002F5F3F4F2F7330708091F8039091F90364
:100510002817390759F0E091F603F091F703EA54F0
:10052000FC4F40833093F7032093F603FF91EF9144
:100530009F918F914F913F912F910F900BBE0F90F4
:100540000FBE0F901F901895E0914A04F0914B0454
:10055000E05CFF4F8191919120813181821B930B4F
:100560008F739070892B11F00E94C001E091690493
:10057000F0916A04E05CFF4F81919191208131817B
:10058000821B930B8F739070892B11F00E94F901DD
:10059000E0918804F0918904E05CFF4F8191919192
:1005A00020813181821B930B8F739070892B11F006
:1005B0000E943202E091A704F091A804E05CFF4F92
:1005C0008191919120813181821B930B8F73907067
:1005D000892B11F00E946B0208951F920F920FB6A3
:1005E0000F920BB60F9211242F933F938F939F93EB
:1005F000EF93FF932091A2023091A3028091A40275
:100600009091A5022817390731F48091C1008F7DA0
:100610008093C10014C0E091A402F091A502EE59AC
:10062000FD4F20818091A4029091A50201968F73C5
:1006300090709093A5028093A4022093C600FF912E
:10064000EF919F918F913F912F910F900BBE0F9043
:100650000FBE0F901F9018951F920F920FB60F921A
:100660000BB60F9211242F933F938F939F93EF9389
:10067000FF9320912A0330912B0380912C039091BA
:100680002D032817390731F48091C9008F7D80939D
:10069000C90014C0E0912C03F0912D03E651FD4FE9
:1006A000208180912C0390912D0301968F7390707F
:1006B00090932D0380932C032093CE00FF91EF9114
:1006C0009F918F913F912F910F900BBE0F900FBE76
:1006D0000F901F9018951F920F920FB60F920BB6A6
:1006E0000F9211242F933F938F939F93EF93FF9338
:1006F0002091B2033091B3038091B4039091B5037C
:100700002817390731F48091D1008F7D8093D10073
:1007100014C0E091B403F091B503EE58FC4F208172
:100720008091B4039091B50301968F73907090936C
:10073000B5038093B4032093D600FF91EF919F916E
:100740008F913F912F910F900BBE0F900FBE0F9086
:100750001F9018951F920F920FB60F920BB60F9223
:1007600011242F933F938F939F93EF93FF932091A7
:100770003A0430913B0480913C0490913D04281749
:10078000390731F4809131018F7D8093310114C09C
:10079000E0913C04F0913D04E650FC4F20818091B3
:1007A0003C0490913D0401968F73907090933D04AA
:1007B00080933C0420933601FF91EF919F918F919C
:1007C0003F912F910F900BBE0F900FBE0F901F9077
:1007D0001895AF92BF92DF92EF92FF920F931F9303
:1007E000CF93DF93EC017A018B01DD24403081EE61
:1007F000580780E0680780E0780711F0DD24D39483
:1008000091E0A92EB12CEC89FD89DD2069F0C501AC
:100810000E8C02C0880F991F0A94E2F7808360E073
:1008200079E08DE390E005C0108260E874E88EE125
:1008300090E0A80197010E94730C21503040404085
:100840005040569547953795279580E120303807D9
:1008500020F0DD2011F0DD24D6CFE889F98930833E
:10086000EA89FB892083EE89FF89408121E030E01D
:10087000C9010A8C02C0880F991F0A94E2F7482B1D
:100880004083EE89FF894081C9010B8C02C0880F2B
:10089000991F0A94E2F7482B4083EE89FF89408133
:1008A000C9010C8C02C0880F991F0A94E2F7482BEB
:1008B0004083EE89FF8980810D8C02C0220F331F97
:1008C0000A94E2F7209528232083DF91CF911F918E
:1008D0000F91FF90EF90DF90BF90AF900895DC01F3
:1008E0001C96ED91FC911D97E05CFF4F2191319199
:1008F00080819181281B390B2F733070C9010895B5
:10090000DC011C96ED91FC911D97E05CFF4F20816E
:100910003181E054F040DF01AE5BBF4F8D919C917F
:1009200011972817390719F42FEF3FEF07C08D9162
:100930009C91E80FF91F8081282F30E0C9010895AC
:10094000DC011C96ED91FC911D97E05CFF4F20812E
:100950003181E054F040DF01AE5BBF4F8D919C913F
:1009600011972817390719F42FEF3FEF10C08D9119
:100970009C911197E80FF91F20818D919C911197FF
:1009800001968F73907011969C938E9330E0C901FD
:100990000895FC0186859785DC01A05CBF4FFC01B2
:1009A000EE5BFF4F2D913C9111978081918128172B
:1009B0003907C1F70895CF93DF93EC01EE85FF85EA
:1009C000E05CFF4F20813181E054F0402F5F3F4FCA
:1009D0002F733070DF01AE5BBF4F8D919C911197EB
:1009E00028173907D1F3E05CFF4F80819181E054F3
:1009F000F040E80FF91F6083EE85FF85E05CFF4F54
:100A000031832083EE89FF89208181E090E00D8C85
:100A100002C0880F991F0A94E2F7282B208381E0F7
:100A200090E0DF91CF9108951F93109241041092AE
:100A3000400428EE33E040E050E02093420430933D
:100A40004304409344045093450464E072E070937F
:100A50003F0460933E048EE192E090934B048093B8
:100A60004A0482E692E090934D0480934C0485EC16
:100A700090E090934F0480934E0484EC90E0909328
:100A800051048093500480EC90E090935304809341
:100A9000520481EC90E0909355048093540486ECCA
:100AA00090E0909357048093560414E010935804F8
:100AB000B3E0B0935904A7E0A0935A04F5E0F09393
:100AC0005B04E1E0E0935C041092600410925F0428
:100AD0002093610430936204409363045093640450
:100AE00070935E0460935D0486EA92E090936A04DA
:100AF000809369048AEE92E090936C0480936B0477
:100B00008DEC90E090936E0480936D048CEC90E0FB
:100B10009093700480936F0488EC90E0909372043B
:100B20008093710489EC90E0909374048093730433
:100B30008EEC90E090937604809375041093770484
:100B4000B0937804A0937904F0937A04E0937B0443
:100B500010927F0410927E042093800430938104CD
:100B6000409382045093830470937D0460937C04CB
:100B70008EE293E0909389048093880482E793E067
:100B800090938B0480938A0485ED90E090938D047C
:100B900080938C0484ED90E090938F0480938E0476
:100BA00080ED90E0909391048093900481ED90E02B
:100BB000909393048093920486ED90E09093950433
:100BC0008093940410939604B0939704A093980490
:100BD000F0939904E0939A0410929E0410929D045D
:100BE00020939F043093A0044093A1045093A20447
:100BF00070939C0460939B0486EB93E09093A8040D
:100C00008093A7048AEF93E09093AA048093A904A9
:100C100085E391E09093AC048093AB0484E391E08E
:100C20009093AE048093AD0480E391E09093B00480
:100C30008093AF0481E391E09093B2048093B10478
:100C400086E391E09093B4048093B3041093B504C9
:100C5000B093B604A093B704F093B804E093B9043A
:100C60001F910895CF92DF92EF92FF920F931F93FF
:100C7000CF93DF937C016B018A01C0E0D0E00FC00D
:100C8000D6016D916D01D701ED91FC910190F0813C
:100C9000E02DC7011995C80FD91F0150104001154B
:100CA000110571F7CE01DF91CF911F910F91FF9048
:100CB000EF90DF90CF900895EF92FF920F931F93E4
:100CC0008C01DC01ED91FC910190F081E02D6DE053
:100CD00019957C01D801ED91FC910190F081E02DF6
:100CE000C8016AE019959C012E0D3F1DC9011F9195
:100CF0000F91FF90EF900895CF93DF93DB010D905C
:100D00000020E9F71197A61BB70BEC01E881F981E8
:100D10000280F381E02DAD011995DF91CF91089507
:100D20004F925F927F928F929F92AF92BF92CF929B
:100D3000DF92EF92FF920F931F93DF93CF93CDB784
:100D4000DEB7A1970FB6F894DEBF0FBECDBF2C0162
:100D5000742ECB01223008F42AE019A231E2C32E0E
:100D6000D12CCC0EDD1E822E9924AA24BB24672D03
:100D7000752FA50194010E94730C79018A01C801A5
:100D8000B701A50194010E94350C472D461B08941C
:100D9000C108D1084A3014F4405D01C0495CF60135
:100DA0004083E114F1040105110521F07E2C5F2D33
:100DB000C801DDCFC201B6010E947C06A1960FB624
:100DC000F894DEBF0FBECDBFCF91DF911F910F9181
:100DD000FF90EF90DF90CF90BF90AF909F908F905B
:100DE0007F905F904F900895CF92DF92EF92FF92A5
:100DF0000F931F93CF93DF93EC016A017B012115C1
:100E0000310541F4E881F9810190F081E02D642FF2
:100E100019951FC02A303105D1F477FF17C0E8813A
:100E2000F9810190F081E02D6DE219958C01442744
:100E30005527BA014C195D096E097F09CE012AE0D8
:100E40000E9490069801280F391F04C02AE00E94D2
:100E500090069C01C901DF91CF911F910F91FF90E6
:100E6000EF90DF90CF900895CF92DF92EF92FF92B4
:100E70000F931F936C017B019A010027F7FC0095EB
:100E8000102FB801A7010E94F4068C01C6010E9430
:100E90005C06080F191FC8011F910F91FF90EF907A
:100EA000DF90CF900895FC018091BA04803390F4D4
:100EB00080838F5F8093BA04815090E0FC01EE0F35
:100EC000FF1FE80FF91FE554FB4F88EB9BE092836F
:100ED000818308958FEF80830895FC012081203362
:100EE00008F041C08181992787FD909548E850E03E
:100EF000481B590B440F551F440F551F64177507A6
:100F000084F08281992787FD909548E552E0481B3F
:100F1000590B440F551F440F551F641775070CF4E8
:100F2000AB0142505040CA01AA2797FDA095BA2FA5
:100F300074E0880F991FAA1FBB1F7A95D1F763E051
:100F4000B695A795979587956A95D1F74FB7F89479
:100F500030E0F901EE0FFF1FE20FF31FE554FB4FE6
:100F6000928381834FBF0895AF92BF92CF92DF9259
:100F7000EF92FF920F931F93CF93DF93EC019B01AE
:100F800082E0603278070CF048C077FF03C020E0B1
:100F900030E005C0653B710514F024EB30E000D073
:100FA0000F92B901882777FD8095982F29813327E3
:100FB00027FD3095E8E8AE2EB12CA21AB30AAA0C90
:100FC000BB1CAA0CBB1CCC24B7FCC094DC2CEA8153
:100FD000FF27E7FDF09528E532E02E1B3F0B220F9F
:100FE000331F220F331F442737FD4095542FEDB791
:100FF000FEB7218332834383548320E030E040E016
:1010000050E004EBE02EF12C012D112D0E944D0A31
:101010009B010F900F900F900F90CE01B9010E948D
:101020006D07DF91CF911F910F91FF90EF90DF90AF
:10103000CF90BF90AF900895CF92DF92EF92FF9242
:101040001F93CF93DF93EC01162F7A0169018881FA
:10105000803308F093C0862F61E00E944F0B888197
:1010600090E0FC01EE0FFF1FE80FF91FE554FB4F66
:101070001F738081807C812B808380E292E08E19B7
:101080009F0964E070E00E94600C698380E699E04B
:101090008C199D0964E070E00E94600C6A83A8814D
:1010A0008A2F6CE00E94540C682F70E0AB01440F53
:1010B000551F460F571F440F551F440F551F20E063
:1010C00030E0C901840F951FFC01EE0FFF1FE80FF0
:1010D000F91FE554FB4F808186FD44C02F5F3F4FD1
:1010E0002C30310571F753C01092800082E080935C
:1010F00081001092850010928400B19A80916F0057
:10110000826080936F002EC06230710569F4109286
:10111000900082E0809391001092950010929400CC
:1011200088BB809371001EC06330710569F4109212
:10113000A00082E08093A1001092A5001092A4006C
:1011400089BB809372000EC0672B61F4109220015E
:1011500082E08093210110922501109224018ABB24
:10116000809373008A2F90E0FC01EE0FFF1FE80FC1
:10117000F91FE554FB4F8081806480838881DF9173
:10118000CF911F91FF90EF90DF90CF900895613045
:10119000710509F0B9CFA8CF40E252E020E639E06E
:1011A0000E941C080895EF92FF920F931F93CF9314
:1011B000DF938B017A01EC01DC01A55BBA4F8C91C6
:1011C00087FF04C0FB011182108237C0AE01440FBB
:1011D000551F4C0F5D1F440F551F440F551F2C9179
:1011E000332727FD3095240F351F8091BA0490E0F6
:1011F0002817390714F58C91992787FD9095840F4E
:10120000951FFC01EE0FFF1FE80FF91FE554FB4F80
:10121000808186FF12C08C91992787FD9095840F5D
:10122000951FFC01EE0FFF1FE80FF91FE554FB4F60
:1012300080818F7360E00E94020CDE01A55BBA4FD3
:101240008C918F5F8C93AE01440F551F4C0F5D1F27
:10125000440F551F440F551F2C91332727FD309500
:10126000240F351F8091BA0490E0281739070CF03D
:101270004DC08C918C300CF049C0F8012081318137
:101280008C91992787FD9095840F951FFC01EE0F97
:10129000FF1FE80FF91FE554FB4F81819281280F52
:1012A000391FF701318320838C91992787FD909511
:1012B000840F951FFC01EE0FFF1FE80FF91FE55487
:1012C000FB4F808186FF2AC08C91992787FD9095DE
:1012D000840F951FFC01EE0FFF1FE80FF91FE55467
:1012E000FB4F80818F7361E00E94020C17C080E485
:1012F0009CE904C0F801808191810496F7019183F3
:101300008083C55BDA4F8FEF888308C0F801808146
:101310009181049680549C4950F3ECCFDF91CF919A
:101320001F910F91FF90EF9008951F920F920FB6AB
:101330000F920BB60F9211242F933F934F935F930D
:101340006F937F938F939F93AF93BF93EF93FF938D
:1013500080E090E064E271E048E251E00E94D3084E
:10136000FF91EF91BF91AF919F918F917F916F917D
:101370005F914F913F912F910F900BBE0F900FBE39
:101380000F901F9018951F920F920FB60F920BB6E9
:101390000F9211242F933F934F935F936F937F93FB
:1013A0008F939F93AF93BF93EF93FF9383E090E06E
:1013B00064EA70E048EA50E00E94D308FF91EF91A0
:1013C000BF91AF919F918F917F916F915F914F915D
:1013D0003F912F910F900BBE0F900FBE0F901F905B
:1013E00018951F920F920FB60F920BB60F92112401
:1013F0002F933F934F935F936F937F938F939F931D
:10140000AF93BF93EF93FF9382E090E064E970E0C5
:1014100048E950E00E94D308FF91EF91BF91AF914E
:101420009F918F917F916F915F914F913F912F91FC
:101430000F900BBE0F900FBE0F901F9018951F922C
:101440000F920FB60F920BB60F9211242F933F936A
:101450004F935F936F937F938F939F93AF93BF93BC
:10146000EF93FF9381E090E064E870E048E850E09B
:101470000E94D308FF91EF91BF91AF919F918F91FF
:101480007F916F915F914F913F912F910F900BBE84
:101490000F900FBE0F901F9018952F923F924F9272
:1014A0005F926F927F928F929F92AF92BF92CF92F4
:1014B000DF92EF92FF920F931F93DF93CF93CDB7FD
:1014C000DEB73B014C0119012A016E897F89888DA5
:1014D000998D6A197B098C099D09621A730A840A1D
:1014E000950AA40193010E94350CE218F30804093F
:1014F0001509A80197010E94950C2A0D3B1D4C1D52
:101500005D1DB901CA01CF91DF911F910F91FF902D
:10151000EF90DF90CF90BF90AF909F908F907F9093
:101520006F905F904F903F902F900895CF93DF93EF
:101530000E94ED0A0E949A01C4EAD2E00E94490189
:101540002097E1F30E94A402F9CF1F920F920FB6E9
:101550000F9211242F933F938F939F93AF93BF9339
:101560008091530590915405A0915505B091560571
:10157000309157050196A11DB11D232F2D5F2D37E9
:1015800020F02D570196A11DB11D20935705809382
:10159000530590935405A0935505B093560580913B
:1015A0004F0590915005A0915105B09152050196BB
:1015B000A11DB11D80934F0590935005A093510537
:1015C000B0935205BF91AF919F918F913F912F9111
:1015D0000F900FBE0F901F901895789484B582607D
:1015E00084BD84B5816084BD85B5826085BD85B5C7
:1015F000816085BDEEE6F0E0808181608083E1E876
:10160000F0E01082808182608083808181608083AD
:10161000E0E8F0E0808181608083E1EBF0E08081B0
:1016200084608083E0EBF0E0808181608083E1E989
:10163000F0E0808182608083808181608083E0E946
:10164000F0E0808181608083E1EAF0E08081826067
:101650008083808181608083E0EAF0E08081816026
:101660008083E1E2F1E0808182608083808181601B
:101670008083E0E2F1E0808181608083EAE7F0E04E
:1016800080818460808380818260808380818160AA
:1016900080838081806880831092C1000895CF93F9
:1016A000DF93482F50E0CA0188589E4FFC013491C7
:1016B0004E5C5E4FFA018491882369F190E0880FB7
:1016C000991FFC01EC51FF4FA591B491FC01E25030
:1016D000FF4FC591D491662351F42FB7F8948C91A4
:1016E000932F909589238C93888189230BC0623036
:1016F00061F42FB7F8948C91932F909589238C9354
:101700008881832B88832FBF06C09FB7F8948C9164
:10171000832B8C939FBFDF91CF910895893009F47B
:1017200049C08A30A0F4843051F1853040F48230D1
:1017300079F1833000F5813009F063C026C087302D
:1017400079F1883098F5863009F05BC025C08D307E
:1017500009F442C08E3028F48B30B1F18C30C0F5E2
:101760002DC0803109F442C0813109F445C08F3069
:1017700009F047C037C0809180008F7703C0809107
:1017800080008F7D80938000089584B58F7702C09C
:1017900084B58F7D84BD08958091B0008F7703C09C
:1017A0008091B0008F7D8093B0000895809190006B
:1017B0008F7707C0809190008F7D03C0809190004B
:1017C000877F8093900008958091A0008F7707C055
:1017D0008091A0008F7D03C08091A000877F8093BF
:1017E000A0000895809120018F7703C0809120018F
:1017F0008F7D80932001089580912001877F8093C1
:1018000020010895FF920F931F93F62E482F50E06A
:10181000CA0182549E4FFC012491CA0188589E4FF0
:10182000FC0114914E5C5E4FFA0104910023C9F053
:10183000222319F0822F0E948E0BE02FF0E0EE0F92
:10184000FF1FE250FF4FA591B4919FB7F894FF207E
:1018500021F48C911095812302C08C91812B8C9363
:101860009FBF1F910F91FF900895629FD001739FBA
:10187000F001829FE00DF11D649FE00DF11D929F2C
:10188000F00D839FF00D749FF00D659FF00D99276B
:10189000729FB00DE11DF91F639FB00DE11DF91F8F
:1018A000BD01CF0111240895991B79E004C0991F4F
:1018B000961708F0961B881F7A95C9F780950895AA
:1018C00097FB092E07260AD077FD04D049D006D011
:1018D00000201AF4709561957F4F0895F6F7909562
:1018E00081959F4F0895A1E21A2EAA1BBB1BFD01F3
:1018F0000DC0AA1FBB1FEE1FFF1FA217B307E407EF
:10190000F50720F0A21BB30BE40BF50B661F771F46
:10191000881F991F1A9469F7609570958095909526
:101920009B01AC01BD01CF01089597FB092E05264F
:101930000ED057FD04D0D7DF0AD0001C38F45095E4
:101940004095309521953F4F4F4F5F4F0895F6F7E3
:1019500090958095709561957F4F8F4F9F4F08951B
:10196000AA1BBB1B51E107C0AA1FBB1FA617B707C5
:1019700010F0A61BB70B881F991F5A95A9F78095E1
:101980009095BC01CD010895EE0FFF1F0590F491D5
:08199000E02D1994F894FFCF3B
:1019980000000000DB0432066F04A0048004C904C0
:00000001FF
